:08000000803102288731EE2F48
:100B0E008531BF258531430111150800FE00120005
:100B1E001E00FE0B8E2D00348531BF25853143011D
:100B2E00111411189B2D9C2D982D0800DB30F1000F
:100B3E008930F2001730F3008631322685310800F5
:100B4E00F0008531BF258531700843018C000F18E8
:100B5E00B12DB22DAE2D080085319325853178301B
:100B6E008531A725853140308531A725853108008F
:100B7E00043043010F060319C52DC62DBF2D1F309E
:100B8E0011060319CB2DCC2DBF2D0800F300F20159
:100B9E00731CD22DD32DD72D7008F1007108F207DA
:100BAE000310F00D0310F30C7308031DDF2DE02D61
:100BBE00CF2D720808007234203459342034413459
:100BCE0020346E342034263420344B3420346134B7
:100BDE0020344C34213400340034223400340334B5
:100BEE0001347E01CE114E1243018F130F130930C3
:100BFE008D0090161008F0390838900014307D01E1
:100C0E00C6001330C50015307E01A4001430A300B9
:100C1E0008004001A6004D308600003087002030CD
:100C2E008400003085000630FA0016001A00FA0B18
:100C3E001C2E2608A1007708A2007808A4007908C7
:100C4E00A5002030F1000030F2000630F3008631AE
:100C5E0032268631080085319325863178308531EC
:100C6E00A725863100308531A7258631F501F6019D
:100C7E004E2E7108750784007208763D85000008B7
:100C8E008531A72586310130F5070030F63D76080F
:100C9E00803AF40080307402031D572E73087502DB
:100CAE00031C5A2E5B2E402E853187258631080077
:100CBE00F800F230F1008930F2000630F300863190
:100CCE00322686318531B3258631FA01F9016F2E30
:100CDE0078088531A72586310130F7007708FA07A5
:100CEE007F307A02031C7C2E7D2E6F2EFA0101308E
:100CFE00F7007708F90705307902031C872E882E36
:100D0E006F2E8531872586310800F8007808860019
:100D1E0087010108F5007508E03EF7000530F00088
:100D2E0077088531CD258631F9007908053EF60024
:100D3E00B22E8531B32586317908003E8400883085
:100D4E000318013E850000088531A7258631013044
:100D5E00F4007408F90776087902031CB72EB82E32
:100D6E00A02E85318725863108003E308600003062
:100D7E00870027308400003085000F30FB001600FE
:100D8E001A00FB0BC62E603051018D008F019101B0
:100D9E000530930092018531F825863185319D25E8
:100DAE008631553086315F2686311530FC004B304A
:100DBE00FB00BE30890BE12EFB0BE12EFC0BE12E6E
:100DCE000032003086315F2686317930F700F80127
:100DDE00F901F90A34308631102686318531B32572
:100DEE0086314001B601B70140013608273E8631F3
:100DFE008C26863101304001B6070030B73D3708EA
:100E0E00803AFB0080307B02031D0F2F0B30360221
:100E1E00031C122F132FFB2E2930FC009630FB00E3
:100E2E007F30890B182FFB0B182FFC0B182F00008F
:100E3E00553086315F2686311530FC004B30FB0075
:100E4E00BE30890B282FFB0B282FFC0B282F0032CE
:100E5E00003086315F2686314630F7000230F800CA
:100E6E000330F90001308631102686318531B325E5
:100E7E0086314001B801B90140013808273E86315C
:100E8E008C26863101304001B8070030B93D390853
:100E9E00803AFB0080307B02031D572F0B30380247
:100EAE00031C5A2F5B2F432F2930FC009630FB007A
:100EBE007F30890B602FFB0B602FFC0B602F000027
:100ECE00003086315F2686317D30F700F801F80A52
:100EDE000230F90050308631102686318531B32527
:100EEE0086314001BA01BB0140013A08273E8631E6
:100EFE008C26863101304001BA070030BB3D3B08DD
:100F0E00803AFB0080307B02031D8F2F0B303A029C
:100F1E00031C922F932F7B2F2930FC009630FB0061
:100F2E007F30890B982FFB0B982FFC0B982F00000E
:100F3E00053086315F2686311530FC004B30FB00C4
:100F4E00BE30890BA82FFB0BA82FFC0BA82F00324D
:100F5E00003086315F2686315A30F7000330F800B4
:100F6E000330F9002D308631102686318531B325B8
:100F7E0086314001BC01BD0140013C08273E86314F
:100F8E008C26863101304001BC070030BD3D3D0846
:100F9E00803AFB0080307B02031DD72F0B303C02C2
:100FAE00031CDA2FDB2FC32F2930FC009630FB00F9
:100FBE007F30890BE02FFB0BE02FFC0BE02F0000A6
:100FCE00553086315F268631D82E80310228E230A8
:100FDE008400853085003E30860000308700163054
:100FEE0085318D258731FD01D401D5014001863132
:100FFE00BC2E00340034003400340034003400348D
:10100E002F340034003400340734003407340034F5
:10101E0014347F3414347F34143424342A347F341B
:10102E002A3412342334133408346434623436349C
:10103E0049345534223450340034053403340034EA
:10104E00003400341C342234413400340034413432
:10105E0022341C340034143408343E34083414342E
:10106E00083408343E340834083400340034A034D4
:10107E00603400340834083408340834083400343A
:10108E0060346034003400342034103408340434B6
:10109E0002343E345134493445343E340034423403
:1010AE007F34403400344234613451344934463450
:1010BE002134413445344B34313418341434123421
:1010CE007F341034273445344534453439343C3478
:1010DE004A344934493430340134713409340534D6
:1010EE0003343634493449344934363406344934B9
:1010FE00493429341E340034363436340034003446
:10110E000034563436340034003408341434223467
:10111E00413400341434143414341434143400347C
:10112E004134223414340834023401345134093435
:10113E00063432344934593451343E347C3412340A
:10114E00113412347C347F344934493449343634C2
:10115E003E3441344134413422347F3441344134BD
:10116E0022341C347F3449344934493441347F3479
:10117E0009340934093401343E3441344934493494
:10118E007A347F340834083408347F3400344134E0
:10119E007F34413400342034403441343F34013400
:1011AE007F3408341434223441347F344034403494
:1011BE00403440347F3402340C3402347F347F3474
:1011CE000434083410347F343E34413441344134D5
:1011DE003E347F3409340934093406343E34413404
:1011EE00513421345E347F34093419342934463471
:1011FE0046344934493449343134013401347F346E
:10120E00013401343F344034403440343F341F34D1
:10121E002034403420341F343F344034383440348A
:10122E003F346334143408341434633407340834CC
:10123E0070340834073461345134493445344334FE
:10124E0000347F3441344134003455342A3455341B
:10125E002A3455340034413441347F34003404345C
:10126E0002340134023404344034403440344034C7
:10127E004034003401340234043400342034543405
:10128E005434543478347F34483444344434383409
:10129E0038344434443444342034383444344434BC
:1012AE0048347F3438345434543454341834083475
:1012BE007E340934013402341834A434A434A434F2
:1012CE007C347F34083404340434783400344434A9
:1012DE007D34403400344034803484347D340034E2
:1012EE007F341034283444340034003441347F3495
:1012FE00403400347C3404341834043478347C3470
:10130E0008340434043478343834443444344434A3
:10131E003834FC342434243424341834183424342B
:10132E0024341834FC347C34083404340434083443
:10133E004834543454345434203404343F34443414
:10134E00403420343C344034403420347C341C341B
:10135E002034403420341C343C3440343034403457
:10136E003C34443428341034283444341C34A034EF
:10137E00A034A0347C344434643454344C34443477
:10138E000034083477340034003400347F340034B1
:10139E000034003400347734083400340034103410
:1013AE0008341034083400340034AE34D53490345C
:1013BE00A8341F34D334003440348D341434A03464
:1013CE00DA34C03481347F34D934F134A434A634C1
:1013DE0020340034AF34213400347F3422340034CE
:0213EE000334C6
:020000040001F9
:08000000FF3FFF3FFF3FFF3F00
:0A000E00EC3FFF3F9F3FFF3FFF3F25
:00000001FF
